:100000000C9404010C9431010C9431010C943101D5
:100010000C9431010C9431010C9431010C94310198
:100020000C9431010C9431010C9431010C94310188
:100030000C9431010C9431010C9431010C94310178
:100040000C9431010C949C0A0C9431010C943101F4
:100050000C9431010C9431010C9431010C94CA0AB6
:100060000C9431010C94C50D0C941D0F0C943101AE
:100070000C9431010C9431010C9431010C94310138
:100080000C946E0A0C9431010C9431010C943101E2
:100090000C94050E0C945C0F0C9431010C943101FE
:1000A0000C9431010C9431010C94400A0C943101F0
:1000B0000C9431010C9431010C9431010C94120A0E
:1000C0000C9431010C9431010C9431010C94450EC7
:1000D0000C949B0F0C9431010C94850E0C94DA0F48
:1000E0000C94310100002100240027002A002D007B
:1000F0003000330001010000040107010A01000083
:100100002200250028002B002E00310034000201BF
:100110000000050108010B0100002000230026005B
:1001200029002C002F00320000010000030106010D
:10013000090105050505070508080808020202026D
:100140000A0A080804040404010101010101010173
:100150000303030303030303040707070C0C0C0C3E
:100160000C0C0C0C02020202060606060606060627
:100170000B0B0B0B0B0B0B0B0102102020080810B4
:100180002040102040800201020108040201010207
:1001900004081020408080402010080402018004E0
:1001A000020180402010080402010804020101023B
:1001B0000408102040800102040810204080000044
:1001C000090A02080B0C0D070603040100000000D9
:1001D000000000000000000000000000000000001F
:1001E0000000000000000000000011100F000000DF
:1001F00000000000000000000000000000000000FF
:10020000000000006B074D1111241FBECFEFD1E29B
:10021000DEBFCDBF00E00CBF12E0A0E0B2E0EAEE2E
:10022000F7E200E00BBF02C007900D92A832B107C1
:10023000D9F71BBE16E0A8E2B2E001C01D92A439B6
:10024000B107E1F712E0C8E0D2E004C02297FE0156
:100250000E94B813C430D107C9F70E9484120C94CD
:10026000F3130C940000FC0188279927E89421914E
:100270002032E9F3293010F02E30C8F32B3241F050
:100280002D3239F4689404C00E946001820F911DE0
:10029000219120532A30C0F31EF4909581959F4FF1
:1002A0000895FB01DC014150504048F001900D924F
:1002B0000020C9F701C01D9241505040E0F7089559
:1002C0007AE0979F902D879F802D910D112408959E
:1002D000AEE0B0E0EEE6F1E00C94CA130E891F899F
:1002E00086E08C831A8309838FEF9FE79E838D833B
:1002F0009E01265E3F4FCE010196688D798DA90142
:100300000E948C012F813885020F131FF801108283
:100310002E96E4E00C94E613ABE0B0E0E2E9F1E005
:100320000C94BC133C012B015A01FC01178216826C
:10033000838181FD03C06FEF7FEFC6C19AE0892EF4
:100340001E010894211C311CF3012381F20123FDBD
:10035000859123FF81912F01882309F4B2C1853251
:1003600039F423FD859123FF81912F01853229F4F2
:1003700090E0B3010E947F03E7CF982FFF24EE2483
:100380009924FFE1FF15D0F09B3269F09C3228F4EC
:10039000903259F0933291F40EC09D3249F090336F
:1003A00069F441E024C052E0F52A84E0F82A28C02C
:1003B00098E0F92A25C0E0E1FE2A22C0F7FC29C016
:1003C000892F80538A3070F4F6FE05C0989C902CDB
:1003D0001124980E15C0E89CE02C1124E80EF0E2E0
:1003E000FF2A0EC09E3229F4F6FC6BC140E4F42AC9
:1003F00007C09C3619F450E8F52A02C0983649F433
:10040000F20123FD959123FF91912F01992309F08A
:10041000B8CF892F8554833018F08052833038F458
:1004200044E050E0A40EB51E5FE359830FC093363D
:1004300031F0933779F0933509F056C020C0F501BB
:100440008081898342E050E0A40EB51E610101E085
:1004500010E012C0F501C080D180F6FC03C06FEF40
:100460007FEF02C0692D70E042E050E0A40EB51E9F
:10047000C6010E9474038C015FE7F52214C0F501E8
:10048000C080D180F6FC03C06FEF7FEF02C0692D02
:1004900070E042E050E0A40EB51EC6010E94690360
:1004A0008C0150E8F52AF3FE07C01AC080E290E004
:1004B000B3010E947F03EA948E2D90E0081719077C
:1004C000A8F30EC0F601F7FC8591F7FE81916F014C
:1004D00090E0B3010E947F03E110EA9401501040C4
:1004E0000115110579F7EAC0943611F0993669F5CE
:1004F000F7FE08C0F501208131814281538184E0FB
:1005000090E00AC0F501808191819C01442737FD6C
:100510004095542F82E090E0A80EB91E9FE6F92284
:1005200057FF09C050954095309521953F4F4F4F4B
:100530005F4FE0E8FE2ACA01B901A1012AE030E0DC
:100540000E94AB03D82ED21840C0953729F41F2D36
:100550001F7E2AE030E01DC01F2D197F9F3661F0FD
:10056000903720F4983509F0ACC00FC0903739F0BF
:10057000983709F0A6C004C028E030E00AC0106136
:1005800014FD146020E130E004C014FD166020E189
:1005900032E017FF08C0F50160817181828193818B
:1005A00044E050E008C0F50180819181BC0180E009
:1005B00090E042E050E0A40EB51EA1010E94AB0302
:1005C000D82ED2188FE7F82EF122F6FE0BC05EEF80
:1005D000F522D91438F4F4FE07C0F2FC05C08FEE02
:1005E000F82202C01D2D01C0192DF4FE0DC0FE0120
:1005F000ED0DF11D8081803319F499EEF92208C0C8
:100600001F5FF2FE05C003C08F2D867809F01F5FC3
:100610000F2DF3FC14C0F0FE0FC01E1510F09D2C22
:100620000BC09D2C9E0C911A1E2D06C080E290E0FE
:10063000B3010E947F031F5F1E15C0F304C01E1587
:1006400010F4E11A01C0EE2404FF0FC080E390E033
:10065000B3010E947F0302FF1DC001FD03C088E7B4
:1006600090E00EC088E590E00BC0802F867891F076
:1006700001FF02C08BE201C080E2F7FC8DE290E056
:10068000B3010E947F0306C080E390E0B3010E94A3
:100690007F039A94D914C0F3DA94F101ED0DF11DA2
:1006A000808190E0B3010E947F03DD20A9F706C09E
:1006B00080E290E0B3010E947F03EA94EE20C1F74C
:1006C00043CEF30166817781CB012B96E2E10C9456
:1006D000D813FC010590615070400110D8F7809547
:1006E00090958E0F9F1F0895FC01615070400190FE
:1006F0000110D8F7809590958E0F9F1F08950F9346
:100700001F93CF93DF938C01EB018B8181FF1BC083
:1007100082FF0DC02E813F818C819D812817390772
:1007200064F4E881F9810193F983E88306C0E885E0
:10073000F985802F1995892B31F48E819F8101963F
:100740009F838E8302C00FEF1FEFC801DF91CF910F
:100750001F910F910895FA01AA27283051F12031F5
:1007600081F1E8946F936E7F6E5F7F4F8F4F9F4F45
:10077000AF4FB1E03ED0B4E03CD0670F781F891F87
:100780009A1FA11D680F791F8A1F911DA11D6A0F55
:10079000711D811D911DA11D20D009F468943F9108
:1007A0002AE0269F11243019305D3193DEF6CF0107
:1007B0000895462F4770405D4193B3E00FD0C9F7CD
:1007C000F6CF462F4F70405D4A3318F0495D31FD3A
:1007D0004052419302D0A9F7EACFB4E0A69597958D
:1007E000879577956795BA95C9F700976105710563
:1007F00008959B01AC010A2E0694579547953795AD
:100800002795BA95C9F7620F731F841F951FA01D06
:100810000895FC01E050FF4F718360830895CF93EA
:10082000DF93EC0180EA9FE0A0E0B0E08883998349
:10083000AA83BB831986188684E090E09B878A8709
:10084000FE01EE5AFF4F80E090E011920196863152
:100850009105D9F7FE01E856FF4F80E090E022E0D5
:100860002193019686319105D9F7FE0180E090E051
:1008700014860196319686319105D1F70E94120BAC
:100880006C837D838E839F83CA51DF4F19821882C8
:1008900000D000D0EDB7FEB731966296ADB7BEB7C7
:1008A0001296DC93CE93119780E092E0938382833B
:1008B00086E390E0958384830E9468018DB79EB79C
:1008C00006960FB6F8949EBF0FBE8DBFDF91CF91F5
:1008D0000895FC01E151FF4F808190E046979C0113
:1008E000220F331F280F391F2E5F3E4F3596608130
:1008F0007181E45FF040CF01820F931F0E943108A5
:100900000895FC01EC50FF4F80819181E45FF0403D
:10091000DF01A151BF4F892B81F42C9130E026518A
:100920003040C901880F991F820F931F8E5F9E4F21
:100930008E0F9F1F0E94C50708956C9170E09B0168
:1009400026513040C901880F991F820F931F8E5F77
:100950009E4F8E0F9F1F0E9449090895EF92FF92AC
:100960000F931F938C017FEEE72EF12CE80EF91EFA
:10097000D7018C910E949A0B0A501F4FF801819366
:1009800091938F012DB73EB7285030400FB6F894A1
:100990003EBF0FBE2DBFEDB7FEB731969801ADB784
:1009A000BEB711960C93119712963C9329E032E052
:1009B00033832283D7012C912483158297838683E6
:1009C0000E946801EDB7FEB738960FB6F894FEBFE7
:1009D0000FBEEDBF1F910F91FF90EF9008957F9292
:1009E0008F929F92AF92BF92CF92DF92EF92FF923F
:1009F0000F931F93CF93DF93EC01B8EF8B2E912CC5
:100A0000880E991E782E8C01AFEEAA2EB12CAC0E5A
:100A1000BD1EC12CF1E0DF2ECC0EDD1EE6E1EE2E78
:100A2000F12CEC0EFD1ED8011C968C91882361F0F0
:100A3000802F8719F5018083CE010E94AE04D60174
:100A4000ED91FC91C40119950F5F1F4F0E151F0505
:100A500051F7DF91CF911F910F91FF90EF90DF90B1
:100A6000CF90BF90AF909F908F907F900895FC01A2
:100A7000EC50FF4F60817181359780810E94CE0BD1
:100A80000895EF92FF920F931F938C018FEEE82E43
:100A9000F12CE00EF11ED7018C910E94940D0A50AA
:100AA0001F4FF801819391938F012DB73EB72850C6
:100AB00030400FB6F8943EBF0FBE2DBFEDB7FEB766
:100AC00031969801ADB7BEB711960C931197129657
:100AD0003C9329E032E033832283D7012C91248395
:100AE0001582978386830E946801EDB7FEB738961A
:100AF0000FB6F894FEBF0FBEEDBF1F910F91FF9090
:100B0000EF9008956F927F928F929F92AF92BF92D3
:100B1000CF92DF92FF920F931F93CF93DF938C01BD
:100B200048EF642E712C680E791EEC01C856DF4F19
:100B3000FF243FEE832E912C880E991E26EFA22EC5
:100B4000B12CA80EB91EC12C91E0D92EC00ED11E19
:100B5000C654D0408881CA5BDF4F882399F0D40106
:100B6000FC92C8010E944105F501208131818881F4
:100B700090E02817390731F02883D601ED91FC91D8
:100B8000C3011995F3942196B6E1FB1609F7DF919D
:100B9000CF911F910F91FF90DF90CF90BF90AF90BA
:100BA0009F908F907F906F900895EF92FF920F9398
:100BB0001F93CF93DF93EC01EC80FD800E811F81AA
:100BC0000E94120B6E197F09800B910B28813981CD
:100BD0004A815B81261737074807590764F0EC8084
:100BE000FD800E811F810E94120B6E197F09800B00
:100BF000910B97FF19C00E94120B6C837D838E832B
:100C00009F8388859985019699878887CE010E9460
:100C100082056A857B85888599850E945213892B78
:100C200019F4CE010E94EF04DF91CF911F910F9133
:100C3000FF90EF900895FC01EC50FF4F808191816F
:100C40003597892B19F4808160E002C0808161E0D2
:100C50000E94610D0895FC01EC50FF4F808191814D
:100C6000E45FF040DF01A151BF4F892B49F48C9123
:100C7000E80FF11D1486EE5AFF4F108261E002C0AA
:100C80008C9160E00E94AE0C0895AF92BF92CF921B
:100C9000DF92EF92FF920F93CF93DF93EC01C85056
:100CA000DF4F1882C85FD04078EEC72ED12CCC0E13
:100CB000DD1EC252DF4FC601BE0142E050E00E947D
:100CC00051012C961882CA5ED0406CEEE62EF12CB3
:100CD000EC0EFD1EC052DF4FC701BE0142E050E0E6
:100CE0000E9451012E961882CE5ED04050EFA52E64
:100CF000B12CAC0EBD1ECE51DF4FC501BE0143E08D
:100D000050E00E94510161961882C6010E94330191
:100D1000082F28978883C7010E943301E82E249664
:100D20008883C5010E9433019C012596998388839D
:100D3000C45FD040063009F447C0073078F4023071
:100D400051F1033030F40023F1F0013009F070C0AC
:100D50001EC0043041F1053050F521C0093009F4BE
:100D60004AC00A3030F40730D1F1083009F060C0D1
:100D70003EC0013609F447C0023609F447C00A35BF
:100D800009F056C03CC0CE010E942B0651C0CE01D6
:100D90000E941B064DC0CE010E94410549C0CE01F4
:100DA0000E94370545C0CE010E94AE0441C0FE013D
:100DB000EE0DF11D1486EE5AFF4F81E08083EA5B51
:100DC000FF4F82E0808334C0FE01EE0DF11DEE5A2C
:100DD000FF4F1082E255F04081E0848729C0FE0178
:100DE000EE0DF11D1486EE5AFF4F108221C0CE0188
:100DF0000E9481041DC0CE010E94690419C0CE0169
:100E00000E940F0415C09B878A8712C088EE93E06A
:100E1000AC01249FC001259F900D349F900D11249B
:100E2000AA2797FDA095BA2F88839983AA83BB83AD
:100E3000DE01A850BF4F8C91882331F0C050DF4FA6
:100E4000E881F981CD011995DF91CF910F91FF9044
:100E5000EF90DF90CF90BF90AF900895DC016132AA
:100E600029F4AA51BF4F1D921C9208956E3219F4B5
:100E70000E9445060895FC01EA51FF4F808191814F
:100E8000A80FB91FA252BF4F6C9301969183808324
:100E90000895EF92FF920F931F93CF93DF938C01EE
:100EA000E2E0EE2EE1E0FE2EE80EF91EC0E0D0E01A
:100EB000C7018C0F9D1F0E94AB072396C432D1053A
:100EC000B9F7C8010E940F04DF91CF911F910F91D4
:100ED000FF90EF90089588E292E00E9449070895FC
:100EE00009C08CE096E00E94D410682F88E292E05E
:100EF0000E942E078CE096E00E94A010181619069A
:100F000084F388E292E00E94D5058CE096E00E948E
:100F1000FD1008958CE096E040E052EC61E070E056
:100F20000E941910609115027091160288E292E0F9
:100F30000E94090408950F931F93BC010CE016E072
:100F4000C8010E94DB12C80163E172E00E94DB125B
:100F50001F910F910895FC0180914E03803390F40E
:100F600080838F5F80934E03815090E0FC01EE0FF1
:100F7000FF1FE80FF91FE15BFC4F88EB9BE09283BA
:100F8000818308958FEF80830895DC018C9190E038
:100F9000FC01EE0FFF1FE80FF91FE15BFC4F8081A2
:100FA0008F7B80838C916CE00E94461390E0AC01B3
:100FB000440F551F480F591F440F551F440F551F0D
:100FC00020E030E0C901840F951FFC01EE0FFF1FE8
:100FD000E80FF91FE15BFC4F808186FD05C02F5FA4
:100FE0003F4F2C30310571F70895FC0120812033EB
:100FF000B8F58181992787FD909548E850E0481B16
:10100000590B440F551F440F551F6417750784F083
:101010008281992787FD909548E552E0481B590B3E
:10102000440F551F440F551F641775070CF4AB018F
:1010300042505040CA01AA2797FDA095BA2F880FA9
:10104000991FAA1FBB1F4FB7F89430E0F901EE0FAC
:10105000FF1FE20FF31FE15BFC4F928381834FBFC1
:101060000895AF92BF92CF92DF92EF92FF920F93CB
:101070001F93CF93DF93EC019B0182E060327807EE
:101080000CF048C077FF03C020E030E005C0653BAE
:10109000710514F024EB30E000D00F92B9018827DD
:1010A00077FD8095982F2981332727FD3095E8E833
:1010B000AE2EB12CA21AB30AAA0CBB1CAA0CBB1CE4
:1010C000CC24B7FCC094DC2CEA81FF27E7FDF09527
:1010D00028E532E02E1B3F0B220F331F220F331F58
:1010E000442737FD4095542FEDB7FEB72183328357
:1010F0004383548320E030E040E050E004EBE02EF6
:10110000F12C012D112D0E94DE129B010F900F90EA
:101110000F900F90CE01B9010E94F507DF91CF919A
:101120001F910F91FF90EF90DF90CF90BF90AF9005
:101130000895CF92DF92EF92FF921F93CF93DF93A8
:10114000EC01162F7A0169018881803308F093C081
:10115000862F61E00E94AE0C888190E0FC01EE0FCA
:10116000FF1FE80FF91FE15BFC4F1F738081807C3C
:10117000812B808380E292E08E199F0964E070E009
:101180000E946613698380E699E08C199D0964E0EA
:1011900070E00E9466136A83A8818A2F6CE00E9427
:1011A0004613682F70E0AB01440F551F460F571FC1
:1011B000440F551F440F551F20E030E0C901840F34
:1011C000951FFC01EE0FFF1FE80FF91FE15BFC4FBD
:1011D000808186FD44C02F5F3F4F2C30310571F771
:1011E00053C01092800082E08093810010928500AD
:1011F00010928400B19A80916F00826080936F009A
:101200002EC06230710569F41092900082E08093E4
:101210009100109295001092940088BB8093710009
:101220001EC06330710569F41092A00082E08093C3
:10123000A1001092A5001092A40089BB80937200B7
:101240000EC0672B61F41092200182E0809321018F
:1012500010922501109224018ABB809373008A2F7B
:1012600090E0FC01EE0FFF1FE80FF91FE15BFC4F60
:101270008081806480838881DF91CF911F91FF906E
:10128000EF90DF90CF9008956130710509F0B9CFEC
:10129000A8CF40E252E020E639E00E949908089584
:1012A000EF92FF920F931F93CF93DF938B017A01FD
:1012B000EC01DC01A152BC4F8C9187FF04C0FB0103
:1012C0001182108237C0AE01440F551F4C0F5D1FB5
:1012D000440F551F440F551F2C91332727FD309580
:1012E000240F351F80914E0390E02817390714F51D
:1012F0008C91992787FD9095840F951FFC01EE0F27
:10130000FF1FE80FF91FE15BFC4F808186FF12C0D1
:101310008C91992787FD9095840F951FFC01EE0F06
:10132000FF1FE80FF91FE15BFC4F80818F7360E0C6
:101330000E94610DDE01A152BC4F8C918F5F8C9396
:10134000AE01440F551F4C0F5D1F440F551F440F36
:10135000551F2C91332727FD3095240F351F809181
:101360004E0390E0281739070CF04DC08C918C305B
:101370000CF049C0F801208131818C91992787FDBB
:101380009095840F951FFC01EE0FFF1FE80FF91FCA
:10139000E15BFC4F81819281280F391FF701318376
:1013A00020838C91992787FD9095840F951FFC01D0
:1013B000EE0FFF1FE80FF91FE15BFC4F808186FFF6
:1013C0002AC08C91992787FD9095840F951FFC0169
:1013D000EE0FFF1FE80FF91FE15BFC4F80818F7359
:1013E00061E00E94610D17C080E49CE904C0F8012F
:1013F000808191810496F70191838083C152DC4FF3
:101400008FEF888308C0F801808191810496805411
:101410009C4950F3ECCFDF91CF911F910F91FF903A
:10142000EF9008951F920F920FB60F920BB60F9286
:1014300011242F933F934F935F936F937F938F93D9
:101440009F93AF93BF93EF93FF9380E090E064E2AC
:1014500071E048E251E00E945009FF91EF91BF9185
:10146000AF919F918F917F916F915F914F913F913C
:101470002F910F900BBE0F900FBE0F901F901895DD
:101480001F920F920FB60F920BB60F9211242F934B
:101490003F934F935F936F937F938F939F93AF93FC
:1014A000BF93EF93FF9383E090E064EA70E048EA33
:1014B00050E00E945009FF91EF91BF91AF919F9131
:1014C0008F917F916F915F914F913F912F910F90ED
:1014D0000BBE0F900FBE0F901F9018951F920F928A
:1014E0000FB60F920BB60F9211242F933F934F9389
:1014F0005F936F937F938F939F93AF93BF93EF937C
:10150000FF9382E090E064E970E048E950E00E94D7
:101510005009FF91EF91BF91AF919F918F917F9172
:101520006F915F914F913F912F910F900BBE0F9054
:101530000FBE0F901F9018951F920F920FB60F922B
:101540000BB60F9211242F933F934F935F936F939A
:101550007F938F939F93AF93BF93EF93FF9381E01C
:1015600090E064E870E048E850E00E945009FF9184
:10157000EF91BF91AF919F918F917F916F915F910B
:101580004F913F912F910F900BBE0F900FBE0F9078
:101590001F9018951F920F920FB60F9211242F9340
:1015A0003F938F939F93AF93BF938091E703909165
:1015B000E803A091E903B091EA033091EB030196AF
:1015C000A11DB11D232F2D5F2D3720F02D57019622
:1015D000A11DB11D2093EB038093E7039093E803D3
:1015E000A093E903B093EA038091E3039091E403AD
:1015F000A091E503B091E6030196A11DB11D809372
:10160000E3039093E403A093E503B093E603BF9153
:10161000AF919F918F913F912F910F900FBE0F909F
:101620001F9018959FB7F8942091E3033091E4033D
:101630004091E5035091E60386B5A89B06C08F3F15
:1016400021F02F5F3F4F4F4F5F4F9FBF542F432FCE
:10165000322F2227280F311D411D511D82E0220FFC
:10166000331F441F551F8A95D1F7B901CA01089548
:10167000789484B5826084BD84B5816084BD85B56D
:10168000826085BD85B5816085BDEEE6F0E0808134
:1016900081608083E1E8F0E0108280818260808355
:1016A000808181608083E0E8F0E0808181608083D8
:1016B000E1EBF0E0808184608083E0EBF0E080810A
:1016C00081608083E1E9F0E08081826080838081B5
:1016D00081608083E0E9F0E0808181608083E1EADD
:1016E000F0E0808182608083808181608083E0EA95
:1016F000F0E0808181608083E1E2F1E080818260BE
:101700008083808181608083E0E2F1E0808181607C
:101710008083EAE7F0E0808184608083808182605A
:101720008083808181608083808180688083109243
:10173000C1000895382F863308F0365320917B007E
:10174000832F86958695869590E08170907043E012
:10175000880F991F4A95E1F7277F282B20937B005C
:101760003770809117028295880F880F807C832BB9
:1017700080937C0080917A00806480937A008091CD
:101780007A0086FDFCCF2091780040917900942F5B
:1017900080E030E0282B392BC90108951F93CF93A7
:1017A000DF93182FEB0161E00E94AE0C209709F443
:1017B000CAC0CF3FD10509F4C9C0E12FF0E0E2541F
:1017C000FE4F8491893009F466C08A30B0F48430C9
:1017D000F1F1853040F4823059F1833070F5813079
:1017E00009F0AEC020C0873009F443C0883008F04B
:1017F00048C0863009F0A4C034C08D3009F478C0E8
:101800008E3038F48B3009F45AC08C3008F066C042
:101810004CC0803109F480C0813109F487C08F3019
:1018200009F08EC06FC084B5806884BDC7BD92C00A
:1018300084B5806284BDC8BD8DC080918000806801
:1018400080938000D0938900C093880083C08091EA
:101850008000806280938000D0938B00C0938A00C8
:1018600079C08091B00080688093B000C093B300CD
:1018700071C08091B00080628093B000C093B400CA
:1018800069C080919000806880939000D093990007
:10189000C09398005FC08091900080628093900018
:1018A000D0939B00C0939A0055C0809190008860AF
:1018B00080939000D0939D00C0939C004BC080917A
:1018C000A00080688093A0008091A0008F7B80930F
:1018D000A000D093A900C093A8003CC08091A000B4
:1018E00080628093A000D093AB00C093AA0032C066
:1018F0008091A00088608093A000D093AD00C09339
:10190000AC0028C080912001806880932001D09392
:101910002901C09328011EC080912001806280931C
:101920002001D0932B01C0932A0114C08091200183
:10193000886080932001D0932D01C0932C010AC0B0
:10194000C038D1051CF4812F60E002C0812F61E016
:101950000E94610DDF91CF911F910895CF93DF9386
:10196000482F50E0CA0188589E4FFC0134914E5CCC
:101970005E4FFA018491882369F190E0880F991FE6
:10198000FC01EC51FF4FA591B491FC01E250FF4FD7
:10199000C591D491662351F42FB7F8948C91932F6D
:1019A000909589238C93888189230BC0623061F4E0
:1019B0002FB7F8948C91932F909589238C938881DD
:1019C000832B88832FBF06C09FB7F8948C91832BFD
:1019D0008C939FBFDF91CF910895893009F449C05E
:1019E0008A30A0F4843051F1853040F4823079F1AE
:1019F000833000F5813009F063C026C0873079F16B
:101A0000883098F5863009F05BC025C08D3009F428
:101A100042C08E3028F48B30B1F18C30C0F52DC02F
:101A2000803109F442C0813109F445C08F3009F09A
:101A300047C037C0809180008F7703C080918000BD
:101A40008F7D80938000089584B58F7702C084B520
:101A50008F7D84BD08958091B0008F7703C0809101
:101A6000B0008F7D8093B0000895809190008F77B3
:101A700007C0809190008F7D03C080919000877F88
:101A80008093900008958091A0008F7707C0809187
:101A9000A0008F7D03C08091A000877F8093A0006D
:101AA0000895809120018F7703C0809120018F7D60
:101AB00080932001089580912001877F80932001E9
:101AC0000895FF920F931F93F62E482F50E0CA01FE
:101AD00082549E4FFC012491CA0188589E4FFC01FC
:101AE00014914E5C5E4FFA0104910023C9F0222349
:101AF00019F0822F0E94ED0CE02FF0E0EE0FFF1F97
:101B0000E250FF4FA591B4919FB7F894FF2021F4C4
:101B10008C911095812302C08C91812B8C939FBF57
:101B20001F910F91FF9008950F931F93482F50E03E
:101B3000CA0182549E4FFC012491CA0188589E4FCD
:101B4000FC0104914E5C5E4FFA011491112319F4CB
:101B500020E030E015C0222319F0822F0E94ED0C06
:101B6000812F90E0880F991F885E9E4FFC01A59100
:101B7000B4918C9120E030E0802311F021E030E03E
:101B8000C9011F910F91089508951F920F920FB6EA
:101B90000F920BB60F9211242F933F934F938F9375
:101BA0009F93EF93FF938091C00082FD1DC04091F1
:101BB000C60020912C0430912D042F5F3F4F2F73CE
:101BC000307080912E0490912F042817390771F0FE
:101BD000E0912C04F0912D04E451FC4F40833093AC
:101BE0002D0420932C0402C08091C600FF91EF9138
:101BF0009F918F914F913F912F910F900BBE0F901E
:101C00000FBE0F901F90189508951F920F920FB658
:101C10000F920BB60F9211242F933F934F938F93F4
:101C20009F93EF93FF938091C80082FD1DC0409168
:101C3000CE002091B4043091B5042F5F3F4F2F7335
:101C400030708091B6049091B7042817390771F06D
:101C5000E091B404F091B504EC58FB4F408330930D
:101C6000B5042093B40402C08091CE00FF91EF919F
:101C70009F918F914F913F912F910F900BBE0F909D
:101C80000FBE0F901F90189508951F920F920FB6D8
:101C90000F920BB60F9211242F933F934F938F9374
:101CA0009F93EF93FF938091D00082FD1DC04091E0
:101CB000D60020913C0530913D052F5F3F4F2F739B
:101CC000307080913E0590913F052817390771F0DB
:101CD000E0913C05F0913D05E450FB4F408330938B
:101CE0003D0520933C0502C08091D600FF91EF9105
:101CF0009F918F914F913F912F910F900BBE0F901D
:101D00000FBE0F901F90189508951F920F920FB657
:101D10000F920BB60F9211242F933F934F938F93F3
:101D20009F93EF93FF938091300182FD1DC04091FE
:101D300036012091C4053091C5052F5F3F4F2F73A9
:101D400030708091C6059091C7052817390771F04A
:101D5000E091C405F091C505EC57FA4F40833093EC
:101D6000C5052093C40502C080913601FF91EF9113
:101D70009F918F914F913F912F910F900BBE0F909C
:101D80000FBE0F901F901895E0911806F09119065C
:101D9000E05CFF4F8191919120813181805C9F4F68
:101DA000821B930B60E470E00E946613892B11F094
:101DB0000E94C40DE0913A06F0913B06E05CFF4FB3
:101DC0008191919120813181805C9F4F821B930B87
:101DD00060E470E00E946613892B11F00E94040EEB
:101DE000E0915C06F0915D06E05CFF4F819191917E
:101DF00020813181805C9F4F821B930B60E470E0F7
:101E00000E946613892B11F00E94440EE0917E0619
:101E1000F0917F06E05CFF4F8191919120813181AB
:101E2000805C9F4F821B930B60E470E00E946613FE
:101E3000892B11F00E94840E08951F920F920FB605
:101E40000F920BB60F9211242F933F938F939F9372
:101E5000EF93FF932091700430917104809172048C
:101E6000909173042817390731F48091C1008F7D58
:101E70008093C10014C0E0917204F0917304E05D9E
:101E8000FB4F2081809172049091730401968F73AF
:101E9000907090937304809372042093C600FF9116
:101EA000EF919F918F913F912F910F900BBE0F90CB
:101EB0000FBE0F901F9018951F920F920FB60F92A2
:101EC0000BB60F9211242F933F938F939F93EF9311
:101ED000FF932091F8043091F9048091FA049091D5
:101EE000FB042817390731F48091C9008F7D809356
:101EF000C90014C0E091FA04F091FB04E854FB4FD0
:101F000020818091FA049091FB0401968F73907068
:101F10009093FB048093FA042093CE00FF91EF91FD
:101F20009F918F913F912F910F900BBE0F900FBEFD
:101F30000F901F9018951F920F920FB60F920BB62D
:101F40000F9211242F933F938F939F93EF93FF93BF
:101F500020918005309181058091820590918305C3
:101F60002817390731F48091D1008F7D8093D100FB
:101F700014C0E0918205F0918305E05CFA4F208166
:101F8000809182059091830501968F739070909354
:101F90008305809382052093D600FF91EF919F9156
:101FA0008F913F912F910F900BBE0F900FBE0F900E
:101FB0001F9018951F920F920FB60F920BB60F92AB
:101FC00011242F933F938F939F93EF93FF9320912F
:101FD00008063091090680910A0690910B06281791
:101FE000390731F4809131018F7D8093310114C024
:101FF000E0910A06F0910B06E853FA4F2081809198
:102000000A0690910B0601968F73907090930B06C1
:1020100080930A0620933601FF91EF919F918F9153
:102020003F912F910F900BBE0F900FBE0F901F90FE
:102030001895AF92BF92DF92EF92FF920F931F938A
:10204000CF93DF93EC017A018B01DD24403081EEE8
:10205000580780E0680780E0780711F0DD24D3940A
:1020600091E0A92EB12CEC89FD89DD2069F0C50134
:1020700008A002C0880F991F0A94E2F7808360E0ED
:1020800079E08DE390E005C0108260E874E88EE1AD
:1020900090E0A80197010E94791321503040404000
:1020A0005040569547953795279580E12030380761
:1020B00020F0DD2011F0DD24D6CFE889F9893083C6
:1020C000EA89FB89208319A2EE89FF89408121E0FA
:1020D00030E0C9010C8C02C0880F991F0A94E2F706
:1020E000482B4083EE89FF894081C9010D8C02C0D5
:1020F000880F991F0A94E2F7482B4083EE89FF89E5
:102100004081C9010E8C02C0880F991F0A94E2F722
:10211000482B4083EE89FF8980810F8C02C0220FFB
:10212000331F0A94E2F7209528232083DF91CF9173
:102130001F910F91FF90EF90DF90BF90AF900895A7
:10214000DC011C96ED91FC911D97E05CFF4F8191A5
:10215000919120813181805C9F4F821B930B60E4C1
:1021600070E00E9466130895DC011C96ED91FC91CD
:102170001D97E05CFF4F20813181E054F040DF018A
:10218000AE5BBF4F8D919C9111972817390719F4B9
:102190002FEF3FEF07C08D919C91E80FF91F8081D1
:1021A000282F30E0C9010895DC011C96ED91FC91C7
:1021B0001D97E05CFF4F20813181E054F040DF014A
:1021C000AE5BBF4F8D919C9111972817390719F479
:1021D0002FEF3FEF10C08D919C911197E80FF91FE1
:1021E00020818D919C91119701968F73907011961B
:1021F0009C938E9330E0C9010895DC0191968C91F7
:102200009197882339F05496ED91FC9155978081F0
:1022100086FFF9CF91961C920895CF93DF93EC013E
:10222000EE85FF85E05CFF4F20813181E054F04076
:102230002F5F3F4F2F733070DF01AE5BBF4F8D912B
:102240009C91119728173907D1F3E05CFF4F8081EB
:102250009181E054F040E80FF91F6083EE85FF851F
:10226000E05CFF4F31832083EE89FF89208181E08C
:1022700090E00F8C02C0880F991F0A94E2F7282B78
:10228000208381E089A3EC89FD898081806480833B
:1022900081E090E0DF91CF9108951F9310920F0697
:1022A00010920E0628EE33E040E050E02093100636
:1022B0003093110640931206509313066CE172E0BE
:1022C00070930D0660930C068CEE93E090931906C4
:1022D0008093180680E394E090931B0680931A067F
:1022E00085EC90E090931D0680931C0684EC90E0B2
:1022F00090931F0680931E0680EC90E09093210639
:102300008093200681EC90E0909323068093220630
:1023100082EC90E0909325068093240686EC90E072
:10232000909327068093260614E010932806B3E0C6
:10233000B0932906A7E0A0932A06F5E0F0932B06B8
:10234000E1E0E0932C0610923106109230062093C3
:10235000320630933306409334065093350670931B
:102360002F0660932E0684E794E090933B068093BB
:102370003A0688EB94E090933D0680933C068DEC02
:1023800090E090933F0680933E068CEC90E0909313
:1023900041068093400688EC90E09093430680933A
:1023A000420689EC90E090934506809344068AECBF
:1023B00090E090934706809346068EEC90E09093D1
:1023C00049068093480610934A06B0934B06A093A3
:1023D0004C06F0934D06E0934E0610925306109271
:1023E0005206209354063093550640935606509358
:1023F000570670935106609350068CEF94E09093CB
:102400005D0680935C0680E495E090935F06809380
:102410005E0685ED90E0909361068093600684ED02
:1024200090E0909363068093620680ED90E0909335
:1024300065068093640681ED90E090936706809333
:10244000660682ED90E0909369068093680686EDBB
:1024500090E090936B0680936A0610936C06B0939D
:102460006D06A0936E06F0936F06E09370061092CF
:102470007506109274062093760630937706409383
:10248000780650937906709373066093720684E819
:1024900095E090937F0680937E0688EC95E090937C
:1024A00081068093800685E391E090938306809374
:1024B000820684E391E0909385068093840680E30E
:1024C00091E0909387068093860681E391E0909354
:1024D00089068093880682E391E090938B0680932F
:1024E0008A0686E391E090938D0680938C06109384
:1024F0008E06B0938F06A0939006F0939106E0931A
:1025000092061F9108950895CF93DF930E94380B90
:102510000E9483120E948A07C4ECDEE00E947007CA
:102520002097E1F30E94C40EF9CFCF92DF92EF9291
:10253000FF920F931F93CF93DF937C016B018A016E
:10254000C0E0D0E00FC0D6016D916D01D701ED91D3
:10255000FC910190F081E02DC7011995C80FD91F9A
:10256000015010400115110571F7CE01DF91CF9197
:102570001F910F91FF90EF90DF90CF900895CF9330
:10258000DF93EC016115710519F420E030E00FC014
:10259000DB010D900020E9F71197A61BB70BE8812E
:1025A000F9810280F381E02DAD0119959C01C901EB
:1025B000DF91CF9108950E94BF1208952F923F920C
:1025C0004F925F926F927F928F929F92AF92BF9243
:1025D000CF92DF92EF92FF920F931F93DF93CF93EF
:1025E000CDB7DEB73B014C0119012A016E897F8905
:1025F000888D998D6A197B098C099D09621A730A65
:10260000840A950AA40193010E942713E218F30893
:1026100004091509A80197010E949B132A0D3B1D6F
:102620004C1D5D1DB901CA01CF91DF911F910F9122
:10263000FF90EF90DF90CF90BF90AF909F908F90E2
:102640007F906F905F904F903F902F900895629F82
:10265000D001739FF001829FE00DF11D649FE00D9A
:10266000F11D929FF00D839FF00D749FF00D659FFB
:10267000F00D9927729FB00DE11DF91F639FB00DFA
:10268000E11DF91FBD01CF0111240895991B79E0C7
:1026900004C0991F961708F0961B881F7A95C9F7F2
:1026A00080950895AA1BBB1B51E107C0AA1FBB1F41
:1026B000A617B70710F0A61BB70B881F991F5A95CE
:1026C000A9F780959095BC01CD01089597FB092E3F
:1026D00007260AD077FD04D0E5DF06D000201AF4E3
:1026E000709561957F4F0895F6F7909581959F4F6E
:1026F0000895A1E21A2EAA1BBB1BFD010DC0AA1F43
:10270000BB1FEE1FFF1FA217B307E407F50720F05A
:10271000A21BB30BE40BF50B661F771F881F991FD5
:102720001A9469F760957095809590959B01AC011E
:10273000BD01CF01089597FB092E05260ED057FD48
:1027400004D0D7DF0AD0001C38F45095409530955E
:1027500021953F4F4F4F5F4F0895F6F79095809525
:10276000709561957F4F8F4F9F4F0895EE0FFF1F1C
:102770000590F491E02D19942F923F924F925F9221
:102780006F927F928F929F92AF92BF92CF92DF9281
:10279000EF92FF920F931F93CF93DF93CDB7DEB7E6
:1027A000CA1BDB0B0FB6F894DEBF0FBECDBF19946A
:1027B0002A88398848885F846E847D848C849B84D1
:1027C000AA84B984C884DF80EE80FD800C811B81DF
:1027D000AA81B981CE0FD11D0FB6F894DEBF0FBE0E
:0A27E000CDBFED010895F894FFCF7E
:1027EA0041434B3A2530326400253032643A253071
:1027FA003264000A009B0701000000000D119512C7
:08280A00A010D410B410FD1061
:00000001FF
